{
  "contractName": "CircuitBreaker",
  "abi": [
    {
      "constant": true,
      "inputs": [],
      "name": "owner",
      "outputs": [
        {
          "name": "",
          "type": "address"
        }
      ],
      "payable": false,
      "stateMutability": "view",
      "type": "function"
    },
    {
      "constant": false,
      "inputs": [],
      "name": "toggleContractActive",
      "outputs": [],
      "payable": false,
      "stateMutability": "nonpayable",
      "type": "function"
    }
  ],
  "bytecode": "0x6080604052336000806101000a81548173ffffffffffffffffffffffffffffffffffffffff021916908373ffffffffffffffffffffffffffffffffffffffff16021790555060008060146101000a81548160ff02191690831515021790555034801561006a57600080fd5b506101978061007a6000396000f30060806040526004361061004c576000357c0100000000000000000000000000000000000000000000000000000000900463ffffffff1680631385d24c146100515780638da5cb5b14610068575b600080fd5b34801561005d57600080fd5b506100666100bf565b005b34801561007457600080fd5b5061007d610146565b604051808273ffffffffffffffffffffffffffffffffffffffff1673ffffffffffffffffffffffffffffffffffffffff16815260200191505060405180910390f35b6000809054906101000a900473ffffffffffffffffffffffffffffffffffffffff1673ffffffffffffffffffffffffffffffffffffffff163373ffffffffffffffffffffffffffffffffffffffff1614151561011a57600080fd5b600060149054906101000a900460ff1615600060146101000a81548160ff021916908315150217905550565b6000809054906101000a900473ffffffffffffffffffffffffffffffffffffffff16815600a165627a7a72305820db7cdca97ff1a4b72b1c1b8df5b9d695e59f69b87c0d7b057936539c6b60569e0029",
  "source": "pragma solidity ^0.4.24;\r\n\r\n\r\n///@title Circuit Breaker\r\ncontract CircuitBreaker {\r\n\r\n    address public owner = msg.sender;\r\n\r\n    bool private stopped = false;\r\n\r\n    modifier isAdmin() {\r\n        require(msg.sender == owner); _;\r\n    }\r\n\r\n///@notice owner of the contract submits a new question and can activate circuit breaker\r\n    function toggleContractActive() isAdmin public {\r\n        stopped = !stopped;\r\n    }\r\n\r\n    modifier stopInEmergency { require(!stopped); _; }\r\n}\r\n",
  "sourcePath": "C:\\Users\\User\\documents\\pet-shop-tutorial\\contracts\\CircuitBreaker.sol",
  "compiler": {
    "name": "solc",
    "version": "0.4.24+commit.e67f0147.Emscripten.clang"
  },
  "schemaVersion": "2.0.0",
  "updatedAt": "2018-08-07T11:07:03.920Z"
}